{
  "_format": "hh-sol-artifact-1",
  "contractName": "Basketball",
  "sourceName": "contracts/Basketball.sol",
  "abi": [
    {
      "inputs": [
        {
          "internalType": "string",
          "name": "_player_name",
          "type": "string"
        },
        {
          "internalType": "string",
          "name": "_position",
          "type": "string"
        },
        {
          "internalType": "uint256",
          "name": "_player_age",
          "type": "uint256"
        },
        {
          "internalType": "string",
          "name": "_team_name",
          "type": "string"
        },
        {
          "internalType": "uint256",
          "name": "_height",
          "type": "uint256"
        }
      ],
      "name": "addPlayer",
      "outputs": [
        {
          "components": [
            {
              "internalType": "address payable",
              "name": "author_address",
              "type": "address"
            },
            {
              "internalType": "string",
              "name": "player_name",
              "type": "string"
            },
            {
              "internalType": "string",
              "name": "position",
              "type": "string"
            },
            {
              "internalType": "uint256",
              "name": "player_age",
              "type": "uint256"
            },
            {
              "internalType": "string",
              "name": "team_name",
              "type": "string"
            },
            {
              "internalType": "uint256",
              "name": "height",
              "type": "uint256"
            }
          ],
          "internalType": "struct Basketball.Player",
          "name": "",
          "type": "tuple"
        }
      ],
      "stateMutability": "nonpayable",
      "type": "function"
    },
    {
      "inputs": [],
      "name": "getAllPlayers",
      "outputs": [
        {
          "components": [
            {
              "internalType": "address payable",
              "name": "author_address",
              "type": "address"
            },
            {
              "internalType": "string",
              "name": "player_name",
              "type": "string"
            },
            {
              "internalType": "string",
              "name": "position",
              "type": "string"
            },
            {
              "internalType": "uint256",
              "name": "player_age",
              "type": "uint256"
            },
            {
              "internalType": "string",
              "name": "team_name",
              "type": "string"
            },
            {
              "internalType": "uint256",
              "name": "height",
              "type": "uint256"
            }
          ],
          "internalType": "struct Basketball.Player[]",
          "name": "",
          "type": "tuple[]"
        }
      ],
      "stateMutability": "view",
      "type": "function"
    },
    {
      "inputs": [
        {
          "internalType": "address",
          "name": "_author_address",
          "type": "address"
        }
      ],
      "name": "getPlayersOfAddresses",
      "outputs": [
        {
          "components": [
            {
              "internalType": "address payable",
              "name": "author_address",
              "type": "address"
            },
            {
              "internalType": "string",
              "name": "player_name",
              "type": "string"
            },
            {
              "internalType": "string",
              "name": "position",
              "type": "string"
            },
            {
              "internalType": "uint256",
              "name": "player_age",
              "type": "uint256"
            },
            {
              "internalType": "string",
              "name": "team_name",
              "type": "string"
            },
            {
              "internalType": "uint256",
              "name": "height",
              "type": "uint256"
            }
          ],
          "internalType": "struct Basketball.Player[]",
          "name": "",
          "type": "tuple[]"
        }
      ],
      "stateMutability": "view",
      "type": "function"
    }
  ],
  "bytecode": "0x608060405234801561001057600080fd5b5061128e806100206000396000f3fe608060405234801561001057600080fd5b50600436106100415760003560e01c806315065a3714610046578063325df2b214610076578063efa1c482146100a6575b600080fd5b610060600480360381019061005b9190610979565b6100c4565b60405161006d9190610bc9565b60405180910390f35b610090600480360381019061008b9190610d4c565b6104b7565b60405161009d9190610eb2565b60405180910390f35b6100ae6105dc565b6040516100bb9190610bc9565b60405180910390f35b60606000805b60005481101561015f578373ffffffffffffffffffffffffffffffffffffffff166001600083815260200190815260200160002060000160009054906101000a900473ffffffffffffffffffffffffffffffffffffffff1673ffffffffffffffffffffffffffffffffffffffff160361014c57818061014890610f03565b9250505b808061015790610f03565b9150506100ca565b5060008167ffffffffffffffff81111561017c5761017b610bf5565b5b6040519080825280602002602001820160405280156101b557816020015b6101a26108bb565b81526020019060019003908161019a5790505b5090506000805b6000548110156104ab578573ffffffffffffffffffffffffffffffffffffffff166001600083815260200190815260200160002060000160009054906101000a900473ffffffffffffffffffffffffffffffffffffffff1673ffffffffffffffffffffffffffffffffffffffff160361049857600160008281526020019081526020016000206040518060c00160405290816000820160009054906101000a900473ffffffffffffffffffffffffffffffffffffffff1673ffffffffffffffffffffffffffffffffffffffff1673ffffffffffffffffffffffffffffffffffffffff1681526020016001820180546102b390610f7a565b80601f01602080910402602001604051908101604052809291908181526020018280546102df90610f7a565b801561032c5780601f106103015761010080835404028352916020019161032c565b820191906000526020600020905b81548152906001019060200180831161030f57829003601f168201915b5050505050815260200160028201805461034590610f7a565b80601f016020809104026020016040519081016040528092919081815260200182805461037190610f7a565b80156103be5780601f10610393576101008083540402835291602001916103be565b820191906000526020600020905b8154815290600101906020018083116103a157829003601f168201915b50505050508152602001600382015481526020016004820180546103e190610f7a565b80601f016020809104026020016040519081016040528092919081815260200182805461040d90610f7a565b801561045a5780601f1061042f5761010080835404028352916020019161045a565b820191906000526020600020905b81548152906001019060200180831161043d57829003601f168201915b5050505050815260200160058201548152505083838061047990610f03565b94508151811061048c5761048b610fab565b5b60200260200101819052505b80806104a390610f03565b9150506101bc565b50819350505050919050565b6104bf6108bb565b60006040518060c001604052803373ffffffffffffffffffffffffffffffffffffffff168152602001888152602001878152602001868152602001858152602001848152509050806001600080600081548092919061051d90610f03565b91905055815260200190815260200160002060008201518160000160006101000a81548173ffffffffffffffffffffffffffffffffffffffff021916908373ffffffffffffffffffffffffffffffffffffffff160217905550602082015181600101908161058b9190611186565b5060408201518160020190816105a19190611186565b506060820151816003015560808201518160040190816105c19190611186565b5060a082015181600501559050508091505095945050505050565b60606000805467ffffffffffffffff8111156105fb576105fa610bf5565b5b60405190808252806020026020018201604052801561063457816020015b6106216108bb565b8152602001906001900390816106195790505b50905060005b6000548110156108b357600160008281526020019081526020016000206040518060c00160405290816000820160009054906101000a900473ffffffffffffffffffffffffffffffffffffffff1673ffffffffffffffffffffffffffffffffffffffff1673ffffffffffffffffffffffffffffffffffffffff1681526020016001820180546106c890610f7a565b80601f01602080910402602001604051908101604052809291908181526020018280546106f490610f7a565b80156107415780601f1061071657610100808354040283529160200191610741565b820191906000526020600020905b81548152906001019060200180831161072457829003601f168201915b5050505050815260200160028201805461075a90610f7a565b80601f016020809104026020016040519081016040528092919081815260200182805461078690610f7a565b80156107d35780601f106107a8576101008083540402835291602001916107d3565b820191906000526020600020905b8154815290600101906020018083116107b657829003601f168201915b50505050508152602001600382015481526020016004820180546107f690610f7a565b80601f016020809104026020016040519081016040528092919081815260200182805461082290610f7a565b801561086f5780601f106108445761010080835404028352916020019161086f565b820191906000526020600020905b81548152906001019060200180831161085257829003601f168201915b5050505050815260200160058201548152505082828151811061089557610894610fab565b5b602002602001018190525080806108ab90610f03565b91505061063a565b508091505090565b6040518060c00160405280600073ffffffffffffffffffffffffffffffffffffffff16815260200160608152602001606081526020016000815260200160608152602001600081525090565b6000604051905090565b600080fd5b600080fd5b600073ffffffffffffffffffffffffffffffffffffffff82169050919050565b60006109468261091b565b9050919050565b6109568161093b565b811461096157600080fd5b50565b6000813590506109738161094d565b92915050565b60006020828403121561098f5761098e610911565b5b600061099d84828501610964565b91505092915050565b600081519050919050565b600082825260208201905092915050565b6000819050602082019050919050565b60006109dd8261091b565b9050919050565b6109ed816109d2565b82525050565b600081519050919050565b600082825260208201905092915050565b60005b83811015610a2d578082015181840152602081019050610a12565b60008484015250505050565b6000601f19601f8301169050919050565b6000610a55826109f3565b610a5f81856109fe565b9350610a6f818560208601610a0f565b610a7881610a39565b840191505092915050565b6000819050919050565b610a9681610a83565b82525050565b600060c083016000830151610ab460008601826109e4565b5060208301518482036020860152610acc8282610a4a565b91505060408301518482036040860152610ae68282610a4a565b9150506060830151610afb6060860182610a8d565b5060808301518482036080860152610b138282610a4a565b91505060a0830151610b2860a0860182610a8d565b508091505092915050565b6000610b3f8383610a9c565b905092915050565b6000602082019050919050565b6000610b5f826109a6565b610b6981856109b1565b935083602082028501610b7b856109c2565b8060005b85811015610bb75784840389528151610b988582610b33565b9450610ba383610b47565b925060208a01995050600181019050610b7f565b50829750879550505050505092915050565b60006020820190508181036000830152610be38184610b54565b905092915050565b600080fd5b600080fd5b7f4e487b7100000000000000000000000000000000000000000000000000000000600052604160045260246000fd5b610c2d82610a39565b810181811067ffffffffffffffff82111715610c4c57610c4b610bf5565b5b80604052505050565b6000610c5f610907565b9050610c6b8282610c24565b919050565b600067ffffffffffffffff821115610c8b57610c8a610bf5565b5b610c9482610a39565b9050602081019050919050565b82818337600083830152505050565b6000610cc3610cbe84610c70565b610c55565b905082815260208101848484011115610cdf57610cde610bf0565b5b610cea848285610ca1565b509392505050565b600082601f830112610d0757610d06610beb565b5b8135610d17848260208601610cb0565b91505092915050565b610d2981610a83565b8114610d3457600080fd5b50565b600081359050610d4681610d20565b92915050565b600080600080600060a08688031215610d6857610d67610911565b5b600086013567ffffffffffffffff811115610d8657610d85610916565b5b610d9288828901610cf2565b955050602086013567ffffffffffffffff811115610db357610db2610916565b5b610dbf88828901610cf2565b9450506040610dd088828901610d37565b935050606086013567ffffffffffffffff811115610df157610df0610916565b5b610dfd88828901610cf2565b9250506080610e0e88828901610d37565b9150509295509295909350565b600060c083016000830151610e3360008601826109e4565b5060208301518482036020860152610e4b8282610a4a565b91505060408301518482036040860152610e658282610a4a565b9150506060830151610e7a6060860182610a8d565b5060808301518482036080860152610e928282610a4a565b91505060a0830151610ea760a0860182610a8d565b508091505092915050565b60006020820190508181036000830152610ecc8184610e1b565b905092915050565b7f4e487b7100000000000000000000000000000000000000000000000000000000600052601160045260246000fd5b6000610f0e82610a83565b91507fffffffffffffffffffffffffffffffffffffffffffffffffffffffffffffffff8203610f4057610f3f610ed4565b5b600182019050919050565b7f4e487b7100000000000000000000000000000000000000000000000000000000600052602260045260246000fd5b60006002820490506001821680610f9257607f821691505b602082108103610fa557610fa4610f4b565b5b50919050565b7f4e487b7100000000000000000000000000000000000000000000000000000000600052603260045260246000fd5b60008190508160005260206000209050919050565b60006020601f8301049050919050565b600082821b905092915050565b60006008830261103c7fffffffffffffffffffffffffffffffffffffffffffffffffffffffffffffffff82610fff565b6110468683610fff565b95508019841693508086168417925050509392505050565b6000819050919050565b600061108361107e61107984610a83565b61105e565b610a83565b9050919050565b6000819050919050565b61109d83611068565b6110b16110a98261108a565b84845461100c565b825550505050565b600090565b6110c66110b9565b6110d1818484611094565b505050565b5b818110156110f5576110ea6000826110be565b6001810190506110d7565b5050565b601f82111561113a5761110b81610fda565b61111484610fef565b81016020851015611123578190505b61113761112f85610fef565b8301826110d6565b50505b505050565b600082821c905092915050565b600061115d6000198460080261113f565b1980831691505092915050565b6000611176838361114c565b9150826002028217905092915050565b61118f826109f3565b67ffffffffffffffff8111156111a8576111a7610bf5565b5b6111b28254610f7a565b6111bd8282856110f9565b600060209050601f8311600181146111f057600084156111de578287015190505b6111e8858261116a565b865550611250565b601f1984166111fe86610fda565b60005b8281101561122657848901518255600182019150602085019450602081019050611201565b86831015611243578489015161123f601f89168261114c565b8355505b6001600288020188555050505b50505050505056fea2646970667358221220e9882a00bb137c6542ce6265595d41ac1b7a012e4b46a0d9102e29784724062664736f6c63430008130033",
  "linkReferences": {},
  "deployedLinkReferences": {}
}